:100000000C9462000C948A000C948A000C948A0070
:100010000C948A000C948A000C948A000C948A0038
:100020000C948A000C948A000C948A000C9452035D
:100030000C948A000C948A000C948A000C948A0018
:100040000C9408030C948A000C94D6020C94B00211
:100050000C948A000C948A000C948A000C948A00F8
:100060000C948A000C948A000000000024002700F1
:100070002A0000000000250028002B0000000008D6
:10008000000201000003040700000000000000005F
:1000900000000000230026002900040404040404D6
:1000A0000404020202020202030303030303010227
:1000B00004081020408001020408102001020408F6
:1000C0001020530411241FBECFEFD8E0DEBFCDBFF8
:1000D00011E0A0E0B1E0E8EDFDE002C005900D9276
:1000E000AC33B107D9F722E0ACE3B1E001C01D9217
:1000F000AB30B207E1F710E0C2E6D0E004C02197D0
:10010000FE010E94E406C136D107C9F70E94B0047F
:100110000C94EA060C940000E0910802EC3088F59B
:100120004091090228E830E0241B310947FD33954E
:10013000220F331F220F331F8217930784F0409141
:100140000A0228E532E0241B310947FD3395220FCE
:10015000331F220F331F821793070CF49C01225088
:100160003109220F331F4FB7F8948E2F90E0FC0116
:10017000EE0FFF1FE80FF91FED51FE4F3283218371
:100180004FBF0895AF92BF92CF92DF92EF92FF924E
:100190000F931F93CF93DF936C017B018B01040FAF
:1001A000151FEB015E01AE18BF08C017D10759F04B
:1001B0006991D601ED91FC910190F081E02DC6018D
:1001C0000995892B79F7C501DF91CF911F910F9187
:1001D000FF90EF90DF90CF90BF90AF900895FC011B
:1001E000538D448D252F30E0842F90E0821B930B9C
:1001F000541710F0CF96089501970895FC01918D42
:10020000828D981761F0A28DAE0FBF2FB11D5D9644
:100210008C91928D9F5F9F73928F90E008958FEFE6
:100220009FEF0895FC01918D828D981731F0828D9A
:10023000E80FF11D858D90E008958FEF9FEF0895F1
:10024000FC01918D228D892F90E0805C9F4F821B55
:1002500091098F739927089586E491E00E94200107
:1002600021E0892B09F420E0822F089580E090E0BE
:10027000892B29F00E942C0181110C940000089513
:10028000FC01A48DA80FB92FB11DA35ABF4F2C910B
:10029000848D90E001968F739927848FA689B78902
:1002A0002C93A089B1898C91837080648C93938DF9
:1002B000848D981306C00288F389E02D80818F7D9C
:1002C00080830895EF92FF920F931F93CF93DF9354
:1002D000EC0181E0888F9B8D8C8D98131AC0E88982
:1002E000F989808185FF15C09FB7F894EE89FF8951
:1002F0006083E889F98980818370806480839FBFEF
:1003000081E090E0DF91CF911F910F91FF90EF90EE
:100310000895F62E0B8D10E00F5F1F4F0F731127FE
:10032000E02E8C8D8E110CC00FB607FCFACFE88939
:10033000F989808185FFF5CFCE010E944001F1CF80
:10034000EB8DEC0FFD2FF11DE35AFF4FF0829FB7AD
:10035000F8940B8FEA89FB8980818062CFCFCF939D
:10036000DF93EC01888D8823B9F0AA89BB89E889DD
:10037000F9898C9185FD03C0808186FD0DC00FB683
:1003800007FCF7CF8C9185FFF2CF808185FFEDCF01
:10039000CE010E944001E9CFDF91CF91089590E016
:1003A000FC01E458FF4F2491FC01E255FF4F3491CA
:1003B000FC01E656FF4FE491EE23C9F0222339F009
:1003C000233001F1A8F4213019F1223029F1F0E0B5
:1003D000EE0FFF1FEE58FF4FA591B4918FB7F89421
:1003E000EC91611126C030953E233C938FBF089558
:1003F0002730A9F02830C9F0243049F780918000D7
:100400008F7D03C0809180008F7780938000DFCF45
:1004100084B58F7784BDDBCF84B58F7DFBCF809192
:10042000B0008F778093B000D2CF8091B0008F7DE5
:10043000F9CF3E2BDACFCF93DF9390E0FC01E2556A
:10044000FF4F249186569F4FFC0184918823D1F061
:1004500090E0880F991FFC01E859FF4FA591B491D6
:10046000FC01EE58FF4FC591D49161110EC09FB7AA
:10047000F8948C91E22FE0958E238C932881E223CF
:10048000E8839FBFDF91CF9108958FB7F894EC91E7
:10049000E22BEC938FBFF6CF3FB7F89480914201E7
:1004A00090914301A0914401B091450126B5A89BCC
:1004B00005C02F3F19F00196A11DB11D3FBFBA2FF6
:1004C000A92F982F8827BC01CD01620F711D811DB6
:1004D000911D42E0660F771F881F991F4A95D1F73B
:1004E00008958F929F92AF92BF92CF92DF92EF9238
:1004F000FF924B015C010E944C026B017C010E9447
:100500004C026C197D098E099F09683E7340810574
:100510009105A8F321E0821A9108A108B10888EE9C
:10052000C80E83E0D81EE11CF11C81149104A104C3
:10053000B10429F7FF90EF90DF90CF90BF90AF907C
:100540009F908F900895FC0101900020E9F731976A
:10055000AF01481B590BBC0186E491E00C94C2002A
:100560001F920F920FB60F9211242F933F934F9328
:100570005F936F937F938F939F93AF93BF93EF930B
:10058000FF9386E491E00E944001FF91EF91BF91BB
:10059000AF919F918F917F916F915F914F913F911B
:1005A0002F910F900FBE0F901F9018951F920F92D2
:1005B0000FB60F9211242F938F939F93EF93FF9376
:1005C000E0915601F09157018081E0915C01F0913A
:1005D0005D0182FD1BC0908180915F018F5F8F73F1
:1005E00020916001821741F0E0915F01F0E0EA5B49
:1005F000FE4F958F80935F01FF91EF919F918F91B7
:100600002F910F900FBE0F901F9018958081F4CFFF
:100610001F920F920FB60F9211242F933F938F9337
:100620009F93AF93BF9380913E0190913F01A09122
:100630004001B091410130913D0123E0230F2D375E
:1006400058F50196A11DB11D20933D0180933E01F7
:1006500090933F01A0934001B093410180914201EA
:1006600090914301A0914401B09145010196A11DD3
:10067000B11D8093420190934301A0934401B09334
:100680004501BF91AF919F918F913F912F910F9015
:100690000FBE0F901F90189526E8230F0296A11DFC
:1006A000B11DD2CF1F920F920FB60F9211242F932C
:1006B0003F934F935F936F937F938F939F93AF93EA
:1006C000BF93CF93DF93EF93FF9380913C01C09151
:1006D0000702D0E087FF24C01092850010928400AA
:1006E00080913C018F5F80933C0180913C01082EFA
:1006F000000C990B8C179D0724F480913C018C30E1
:10070000C4F18091840090918500049680349C49C6
:1007100008F47AC08091840090918500049676C098
:1007200080913C01082E000C990B8C179D07C4F694
:10073000E0913C018E2FEE0F990BFC01EE0FFF1F95
:10074000E80FF91FED51FE4F808186FFC9CFE09180
:100750003C018E2FEE0F990BFC01EE0FFF1FE80FEF
:10076000F91FED51FE4F808160E08F730E94CF0131
:10077000B7CF2091840030918500E0913C018E2F0D
:10078000EE0F990BFC01EE0FFF1FE80FF91FED5163
:10079000FE4F81819281820F931F909389008093F5
:1007A0008800E0913C018E2FEE0F990BFC01EE0FBB
:1007B000FF1FE80FF91FED51FE4F808186FF11C02A
:1007C000E0913C018E2FEE0F990BFC01EE0FFF1F05
:1007D000E80FF91FED51FE4F808161E08F730E9499
:1007E000CF01FF91EF91DF91CF91BF91AF919F9199
:1007F0008F917F916F915F914F913F912F910F90CA
:100800000FBE0F901F90189580E49CE9909389008B
:10081000809388008FEF80933C01E3CFCF92DF92EB
:10082000EF92FF920F931F93E82FF92F05C001500D
:1008300011092109310961F1908196239417B9F3C7
:1008400005C0015011092109310911F19081962348
:100850009413F7CFC12CD12CE12CF12C0AC08FEFCF
:10086000C81AD80AE80AF80A0C151D052E053F0516
:1008700079F080818623841791F36C2D7D2D8E2D48
:100880009F2D1F910F91FF90EF90DF90CF900895D3
:1008900060E070E080E090E01F910F91FF90EF909A
:1008A000DF90CF900895109249011092480188EE90
:1008B00093E0A0E0B0E080934A0190934B01A093B5
:1008C0004C01B0934D0184E091E0909347018093F7
:1008D000460185EC90E0909353018093520184ECA3
:1008E00090E0909355018093540180EC90E09093B8
:1008F00057018093560181EC90E0909359018093C9
:10090000580182EC90E090935B0180935A0186EC51
:1009100090E090935D0180935C0110925F011092D2
:1009200060011092610110926201809107028C3087
:1009300098F491E0980F909307028093080290E05A
:10094000FC01EE0FFF1FE80FF91FED51FE4F88EB82
:100950009BE09283818308958FEF8093080208952E
:10096000CF93DF93CDB7DEB7A1970FB6F894DEBF74
:100970000FBECDBF789484B5826084BD84B581609C
:1009800084BD85B5826085BD85B5816085BD80915A
:100990006E00816080936E001092810080918100D2
:1009A00082608093810080918100816080938100CA
:1009B000809180008160809380008091B10084608C
:1009C0008093B1008091B00081608093B0008091ED
:1009D0007A00846080937A0080917A0082608093AC
:1009E0007A0080917A00816080937A0080917A0009
:1009F000806880937A001092C100E0915601F091D6
:100A0000570182E08083E0915201F09153011082FE
:100A1000E0915401F09155018FEC808310925E01BA
:100A2000E0915A01F0915B0186E08083E0915801EA
:100A3000F0915901808180618083E0915801F091AB
:100A40005901808188608083E0915801F0915901BB
:100A5000808180688083E0915801F0915901808104
:100A60008F7D8083809108028C3008F051C061E056
:100A700085E00E941B0280910802282F30E0F901D6
:100A8000EE0FFF1FE20FF31FED51FE4F9081907CA0
:100A9000956090831092090210920A022CE0622F56
:100AA0000E94D806829FB001112430E020E0AB0103
:100AB000420F531FFA01EE0FFF1FE40FF51FED5118
:100AC000FE4F908196FD16C02F5F3F4F2C303105B1
:100AD00071F781110FC01092800082E08093810035
:100AE0001092850010928400B19A80916F0082600C
:100AF00080936F00E09108028E2F90E0FC01EE0FD2
:100B0000FF1FE80FF91FED51FE4F80818064808345
:100B100061E087E00E941B0260E086E00E941B0209
:100B200082E191E00E94A3028DE191E00E94A30284
:100B300068EE73E080E090E00E94710268EE73E07E
:100B400080E090E00E94710260ED77E080E090E04C
:100B50000E9471024AE0842E912CA12CB12C58E8FD
:100B6000252E312C64EB462E512C612C712C61E02A
:100B700087E00E941B0260E087E00E94CF0183E0D3
:100B800090E00197F1F761E087E00E94CF0183E2F6
:100B900090E00197F1F760E087E00E94CF0160E00C
:100BA00086E00E941B02E4EBF0E06491E0EAF0E0F2
:100BB0008491E82FF0E0EE0FFF1FE057FF4F859183
:100BC000949100E412E42FE030E0462F0E940E04DE
:100BD000611571058105910529F06F5F7F4F8F4F7A
:100BE0009F4F9F702AE330E040E050E00E947D0676
:100BF00069017A018BE291E00E94A302A7019601AC
:100C000019A28E010F5D1F4FCA01B901A501940100
:100C10000E94A706605DF80162938F0121153105DE
:100C20004105510589F7309719F0CF010E94A302C1
:100C300086E391E00E94A30264E670E080E090E029
:100C40000E94710280910902F4E1CF16D104E104FF
:100C5000F1041CF19101281B310987FD3395C9016D
:100C6000880F991F880F991F0E948C0089E391E0DB
:100C70000E94A30264E670E080E090E00E947102AE
:100C800080E090E0892B09F472CF0E942C01882328
:100C900009F46DCF0E9400006ACF6101C81AD10823
:100CA00087FDD394CC0CDD1CCC0CDD1C0D2C000C72
:100CB000EE08FF0880910A0228E532E0281B31097E
:100CC00087FD3395220F331F220F331F032E000C95
:100CD000440B550B2C193D094E095F09AAE5B0E0FC
:100CE0000E949C06A30192010E947D06DA01C901BF
:100CF0008C0D9D1DAE1DBF1DB7CF052E97FB1EF49D
:100D000000940E94940657FD07D00E94A70607FC96
:100D100003D04EF40C94940650954095309521954F
:100D20003F4F4F4F5F4F0895909580957095619517
:100D30007F4F8F4F9F4F08950E94C906A59F900D2A
:100D4000B49F900DA49F800D911D11240895A1E2E0
:100D50001A2EAA1BBB1BFD010DC0AA1FBB1FEE1F35
:100D6000FF1FA217B307E407F50720F0A21BB30B80
:100D7000E40BF50B661F771F881F991F1A9469F7FC
:100D800060957095809590959B01AC01BD01CF0158
:100D90000895A29FB001B39FC001A39F700D811D54
:100DA0001124911DB29F700D811D1124911D089574
:100DB000991B79E004C0991F961708F0961B881FAD
:100DC0007A95C9F780950895EE0FFF1F0590F4916D
:080DD000E02D0994F894FFCF17
:100DD800000000006201C200EF00AF012001FE0028
:100DE80012012044697374616E63652000204D65AB
:100DF80061737572656D656E742000446973746102
:0C0E08006E63653A2000636D000D0A0067
:00000001FF
